{
  "_format": "hh-sol-artifact-1",
  "contractName": "Calculator",
  "sourceName": "contracts/Calculator.sol",
  "abi": [
    {
      "inputs": [
        {
          "internalType": "address",
          "name": "_l1TokenAddress",
          "type": "address"
        }
      ],
      "stateMutability": "nonpayable",
      "type": "constructor"
    },
    {
      "anonymous": false,
      "inputs": [
        {
          "indexed": false,
          "internalType": "address",
          "name": "user",
          "type": "address"
        },
        {
          "indexed": false,
          "internalType": "uint256",
          "name": "token1AmountIn",
          "type": "uint256"
        },
        {
          "indexed": false,
          "internalType": "uint256",
          "name": "timestamp",
          "type": "uint256"
        }
      ],
      "name": "SwapToken1",
      "type": "event"
    },
    {
      "anonymous": false,
      "inputs": [
        {
          "indexed": false,
          "internalType": "address",
          "name": "user",
          "type": "address"
        },
        {
          "indexed": false,
          "internalType": "uint256",
          "name": "token2AmountIn",
          "type": "uint256"
        },
        {
          "indexed": false,
          "internalType": "uint256",
          "name": "timestamp",
          "type": "uint256"
        }
      ],
      "name": "SwapToken2",
      "type": "event"
    },
    {
      "inputs": [],
      "name": "K",
      "outputs": [
        {
          "internalType": "uint256",
          "name": "",
          "type": "uint256"
        }
      ],
      "stateMutability": "view",
      "type": "function"
    },
    {
      "inputs": [
        {
          "internalType": "uint256",
          "name": "_token1Amount",
          "type": "uint256"
        }
      ],
      "name": "calculateToken1Swap",
      "outputs": [
        {
          "internalType": "uint256",
          "name": "token2Amount",
          "type": "uint256"
        }
      ],
      "stateMutability": "view",
      "type": "function"
    },
    {
      "inputs": [
        {
          "internalType": "uint256",
          "name": "_token2Amount",
          "type": "uint256"
        }
      ],
      "name": "calculateToken2Swap",
      "outputs": [
        {
          "internalType": "uint256",
          "name": "token1Amount",
          "type": "uint256"
        }
      ],
      "stateMutability": "view",
      "type": "function"
    },
    {
      "inputs": [
        {
          "internalType": "uint256",
          "name": "_token1Amount",
          "type": "uint256"
        }
      ],
      "name": "swapToken1",
      "outputs": [],
      "stateMutability": "nonpayable",
      "type": "function"
    },
    {
      "inputs": [
        {
          "internalType": "uint256",
          "name": "_token2Amount",
          "type": "uint256"
        }
      ],
      "name": "swapToken2",
      "outputs": [],
      "stateMutability": "nonpayable",
      "type": "function"
    },
    {
      "inputs": [],
      "name": "token1",
      "outputs": [
        {
          "internalType": "contract Token",
          "name": "",
          "type": "address"
        }
      ],
      "stateMutability": "view",
      "type": "function"
    },
    {
      "inputs": [],
      "name": "token1Balance",
      "outputs": [
        {
          "internalType": "uint256",
          "name": "",
          "type": "uint256"
        }
      ],
      "stateMutability": "view",
      "type": "function"
    },
    {
      "inputs": [],
      "name": "token2",
      "outputs": [
        {
          "internalType": "contract Token",
          "name": "",
          "type": "address"
        }
      ],
      "stateMutability": "view",
      "type": "function"
    },
    {
      "inputs": [],
      "name": "token2Balance",
      "outputs": [
        {
          "internalType": "uint256",
          "name": "",
          "type": "uint256"
        }
      ],
      "stateMutability": "view",
      "type": "function"
    }
  ],
  "bytecode": "0x60a060405234801561001057600080fd5b50604051610cf6380380610cf6833981810160405281019061003291906100cf565b8073ffffffffffffffffffffffffffffffffffffffff1660808173ffffffffffffffffffffffffffffffffffffffff1681525050506100fc565b600080fd5b600073ffffffffffffffffffffffffffffffffffffffff82169050919050565b600061009c82610071565b9050919050565b6100ac81610091565b81146100b757600080fd5b50565b6000815190506100c9816100a3565b92915050565b6000602082840312156100e5576100e461006c565b5b60006100f3848285016100ba565b91505092915050565b608051610bbc61013a6000396000818161024401528181610286015281816102c8015281816103bf0152818161040101526104430152610bbc6000f3fe608060405234801561001057600080fd5b50600436106100935760003560e01c8063b9ffa6a811610066578063b9ffa6a81461010e578063c5b38c051461012c578063d21220a71461015c578063e682ca691461017a578063f4cb34d4146101aa57610093565b806325be124e1461009857806368a455f1146100b6578063980d69d3146100d4578063a932492f146100f0575b600080fd5b6100a06101c6565b6040516100ad91906106ad565b60405180910390f35b6100be6101ec565b6040516100cb91906106e1565b60405180910390f35b6100ee60048036038101906100e9919061072d565b6101f2565b005b6100f8610230565b60405161010591906106e1565b60405180910390f35b610116610236565b60405161012391906106e1565b60405180910390f35b6101466004803603810190610141919061072d565b61023c565b60405161015391906106e1565b60405180910390f35b610164610393565b60405161017191906106ad565b60405180910390f35b610194600480360381019061018f919061072d565b6103b7565b6040516101a191906106e1565b60405180910390f35b6101c460048036038101906101bf919061072d565b61050e565b005b600160009054906101000a900473ffffffffffffffffffffffffffffffffffffffff1681565b60035481565b7f555213a0961c77e189176ebff0719215fa9f5e1e0d68196833914b17ace351333382426040516102259392919061077b565b60405180910390a150565b60045481565b60025481565b60008061026a7f0000000000000000000000000000000000000000000000000000000000000000600261054c565b80602001905181019061027d91906107c7565b905060006102ac7f0000000000000000000000000000000000000000000000000000000000000000600361054c565b8060200190518101906102bf91906107c7565b905060006102ee7f0000000000000000000000000000000000000000000000000000000000000000600461054c565b80602001905181019061030191906107c7565b9050600085836103119190610823565b9050600081836103219190610886565b9050808561032f91906108b7565b9550848603610347578580610343906108eb565b9650505b848610610389576040517f08c379a000000000000000000000000000000000000000000000000000000000815260040161038090610971565b60405180910390fd5b5050505050919050565b60008054906101000a900473ffffffffffffffffffffffffffffffffffffffff1681565b6000806103e57f0000000000000000000000000000000000000000000000000000000000000000600261054c565b8060200190518101906103f891906107c7565b905060006104277f0000000000000000000000000000000000000000000000000000000000000000600361054c565b80602001905181019061043a91906107c7565b905060006104697f0000000000000000000000000000000000000000000000000000000000000000600461054c565b80602001905181019061047c91906107c7565b90506000858461048c9190610823565b90506000818361049c9190610886565b905080846104aa91906108b7565b95508386036104c25785806104be906108eb565b9650505b838610610504576040517f08c379a00000000000000000000000000000000000000000000000000000000081526004016104fb906109dd565b60405180910390fd5b5050505050919050565b7f6d6cdfcc2bf17a4c206d9909a0907ca8eb7eceab1b2e3577c52e4fc81d53d95c3382426040516105419392919061077b565b60405180910390a150565b60606000606061010173ffffffffffffffffffffffffffffffffffffffff16858560405160200161057e929190610a66565b60405160208183030381529060405260405161059a9190610b03565b600060405180830381855afa9150503d80600081146105d5576040519150601f19603f3d011682016040523d82523d6000602084013e6105da565b606091505b50809250819350505081610623576040517f08c379a000000000000000000000000000000000000000000000000000000000815260040161061a90610b66565b60405180910390fd5b809250505092915050565b600073ffffffffffffffffffffffffffffffffffffffff82169050919050565b6000819050919050565b600061067361066e6106698461062e565b61064e565b61062e565b9050919050565b600061068582610658565b9050919050565b60006106978261067a565b9050919050565b6106a78161068c565b82525050565b60006020820190506106c2600083018461069e565b92915050565b6000819050919050565b6106db816106c8565b82525050565b60006020820190506106f660008301846106d2565b92915050565b600080fd5b61070a816106c8565b811461071557600080fd5b50565b60008135905061072781610701565b92915050565b600060208284031215610743576107426106fc565b5b600061075184828501610718565b91505092915050565b60006107658261062e565b9050919050565b6107758161075a565b82525050565b6000606082019050610790600083018661076c565b61079d60208301856106d2565b6107aa60408301846106d2565b949350505050565b6000815190506107c181610701565b92915050565b6000602082840312156107dd576107dc6106fc565b5b60006107eb848285016107b2565b91505092915050565b7f4e487b7100000000000000000000000000000000000000000000000000000000600052601160045260246000fd5b600061082e826106c8565b9150610839836106c8565b9250828201905080821115610851576108506107f4565b5b92915050565b7f4e487b7100000000000000000000000000000000000000000000000000000000600052601260045260246000fd5b6000610891826106c8565b915061089c836106c8565b9250826108ac576108ab610857565b5b828204905092915050565b60006108c2826106c8565b91506108cd836106c8565b92508282039050818111156108e5576108e46107f4565b5b92915050565b60006108f6826106c8565b915060008203610909576109086107f4565b5b600182039050919050565b600082825260208201905092915050565b7f7377617020616d6f756e7420746f206c61726765000000000000000000000000600082015250565b600061095b601483610914565b915061096682610925565b602082019050919050565b6000602082019050818103600083015261098a8161094e565b9050919050565b7f7377617020616d6f756e7420746f6f206c617267650000000000000000000000600082015250565b60006109c7601583610914565b91506109d282610991565b602082019050919050565b600060208201905081810360008301526109f6816109ba565b9050919050565b60008160601b9050919050565b6000610a15826109fd565b9050919050565b6000610a2782610a0a565b9050919050565b610a3f610a3a8261075a565b610a1c565b82525050565b6000819050919050565b610a60610a5b826106c8565b610a45565b82525050565b6000610a728285610a2e565b601482019150610a828284610a4f565b6020820191508190509392505050565b600081519050919050565b600081905092915050565b60005b83811015610ac6578082015181840152602081019050610aab565b60008484015250505050565b6000610add82610a92565b610ae78185610a9d565b9350610af7818560208601610aa8565b80840191505092915050565b6000610b0f8284610ad2565b915081905092915050565b7f4c31534c4f4144206661696c6564000000000000000000000000000000000000600082015250565b6000610b50600e83610914565b9150610b5b82610b1a565b602082019050919050565b60006020820190508181036000830152610b7f81610b43565b905091905056fea264697066735822122008ea6a6dda4b349b05b9ee1d29fe675bd445cb36946e9ff7de6e8f67fce5d23d64736f6c63430008140033",
  "linkReferences": {},
  "deployedLinkReferences": {}
}