{
  "_format": "hh-sol-artifact-1",
  "contractName": "L2Storage",
  "sourceName": "contracts/L2ERC20.sol",
  "abi": [
    {
      "inputs": [
        {
          "internalType": "address",
          "name": "_l1TokenAddress",
          "type": "address"
        }
      ],
      "stateMutability": "nonpayable",
      "type": "constructor"
    },
    {
      "inputs": [
        {
          "internalType": "address",
          "name": "account",
          "type": "address"
        }
      ],
      "name": "retrieveL1Balance",
      "outputs": [
        {
          "internalType": "uint256",
          "name": "",
          "type": "uint256"
        }
      ],
      "stateMutability": "view",
      "type": "function"
    }
  ],
  "bytecode": "0x60a060405234801561001057600080fd5b506040516105fe3803806105fe833981810160405281019061003291906100cf565b8073ffffffffffffffffffffffffffffffffffffffff1660808173ffffffffffffffffffffffffffffffffffffffff1681525050506100fc565b600080fd5b600073ffffffffffffffffffffffffffffffffffffffff82169050919050565b600061009c82610071565b9050919050565b6100ac81610091565b81146100b757600080fd5b50565b6000815190506100c9816100a3565b92915050565b6000602082840312156100e5576100e461006c565b5b60006100f3848285016100ba565b91505092915050565b6080516104e86101166000396000606c01526104e86000f3fe608060405234801561001057600080fd5b506004361061002b5760003560e01c8063cbb1ca0c14610030575b600080fd5b61004a60048036038101906100459190610232565b610060565b6040516100579190610278565b60405180910390f35b600080600090506100d27f00000000000000000000000000000000000000000000000000000000000000008473ffffffffffffffffffffffffffffffffffffffff16836040516020016100b49291906102b4565b6040516020818303038152906040528051906020012060001c6100ed565b8060200190518101906100e5919061030c565b915050919050565b60606000606061010173ffffffffffffffffffffffffffffffffffffffff16858560405160200161011f929190610381565b60405160208183030381529060405260405161013b919061041e565b600060405180830381855afa9150503d8060008114610176576040519150601f19603f3d011682016040523d82523d6000602084013e61017b565b606091505b508092508193505050816101c4576040517f08c379a00000000000000000000000000000000000000000000000000000000081526004016101bb90610492565b60405180910390fd5b809250505092915050565b600080fd5b600073ffffffffffffffffffffffffffffffffffffffff82169050919050565b60006101ff826101d4565b9050919050565b61020f816101f4565b811461021a57600080fd5b50565b60008135905061022c81610206565b92915050565b600060208284031215610248576102476101cf565b5b60006102568482850161021d565b91505092915050565b6000819050919050565b6102728161025f565b82525050565b600060208201905061028d6000830184610269565b92915050565b6000819050919050565b6102ae6102a98261025f565b610293565b82525050565b60006102c0828561029d565b6020820191506102d0828461029d565b6020820191508190509392505050565b6102e98161025f565b81146102f457600080fd5b50565b600081519050610306816102e0565b92915050565b600060208284031215610322576103216101cf565b5b6000610330848285016102f7565b91505092915050565b60008160601b9050919050565b600061035182610339565b9050919050565b600061036382610346565b9050919050565b61037b610376826101f4565b610358565b82525050565b600061038d828561036a565b60148201915061039d828461029d565b6020820191508190509392505050565b600081519050919050565b600081905092915050565b60005b838110156103e15780820151818401526020810190506103c6565b60008484015250505050565b60006103f8826103ad565b61040281856103b8565b93506104128185602086016103c3565b80840191505092915050565b600061042a82846103ed565b915081905092915050565b600082825260208201905092915050565b7f4c31534c4f4144206661696c6564000000000000000000000000000000000000600082015250565b600061047c600e83610435565b915061048782610446565b602082019050919050565b600060208201905081810360008301526104ab8161046f565b905091905056fea264697066735822122037f4a8a999c6b9606fb9f2b618fcf0893a87e743ad6a1e5d02f882c5c909cdec64736f6c63430008140033",
  "linkReferences": {},
  "deployedLinkReferences": {}
}