{
  "_format": "hh-sol-artifact-1",
  "contractName": "AMM",
  "sourceName": "contracts/AMM.sol",
  "abi": [
    {
      "inputs": [
        {
          "internalType": "contract Token",
          "name": "_token1",
          "type": "address"
        },
        {
          "internalType": "contract Token",
          "name": "_token2",
          "type": "address"
        }
      ],
      "stateMutability": "nonpayable",
      "type": "constructor"
    },
    {
      "anonymous": false,
      "inputs": [
        {
          "indexed": false,
          "internalType": "address",
          "name": "user",
          "type": "address"
        },
        {
          "indexed": false,
          "internalType": "address",
          "name": "tokenGive",
          "type": "address"
        },
        {
          "indexed": false,
          "internalType": "uint256",
          "name": "tokenGiveAmount",
          "type": "uint256"
        },
        {
          "indexed": false,
          "internalType": "address",
          "name": "tokenGet",
          "type": "address"
        },
        {
          "indexed": false,
          "internalType": "uint256",
          "name": "tokenGetAmount",
          "type": "uint256"
        },
        {
          "indexed": false,
          "internalType": "uint256",
          "name": "token1Balance",
          "type": "uint256"
        },
        {
          "indexed": false,
          "internalType": "uint256",
          "name": "token2Balance",
          "type": "uint256"
        },
        {
          "indexed": false,
          "internalType": "uint256",
          "name": "timestamp",
          "type": "uint256"
        }
      ],
      "name": "Swap",
      "type": "event"
    },
    {
      "inputs": [],
      "name": "K",
      "outputs": [
        {
          "internalType": "uint256",
          "name": "",
          "type": "uint256"
        }
      ],
      "stateMutability": "view",
      "type": "function"
    },
    {
      "inputs": [
        {
          "internalType": "uint256",
          "name": "_token1Amount",
          "type": "uint256"
        },
        {
          "internalType": "uint256",
          "name": "_token2Amount",
          "type": "uint256"
        }
      ],
      "name": "addLiquidity",
      "outputs": [],
      "stateMutability": "nonpayable",
      "type": "function"
    },
    {
      "inputs": [
        {
          "internalType": "uint256",
          "name": "_token2Amount",
          "type": "uint256"
        }
      ],
      "name": "calculateToken1Deposit",
      "outputs": [
        {
          "internalType": "uint256",
          "name": "token1Amount",
          "type": "uint256"
        }
      ],
      "stateMutability": "view",
      "type": "function"
    },
    {
      "inputs": [
        {
          "internalType": "uint256",
          "name": "_token1Amount",
          "type": "uint256"
        }
      ],
      "name": "calculateToken1Swap",
      "outputs": [
        {
          "internalType": "uint256",
          "name": "token2Amount",
          "type": "uint256"
        }
      ],
      "stateMutability": "view",
      "type": "function"
    },
    {
      "inputs": [
        {
          "internalType": "uint256",
          "name": "_token1Amount",
          "type": "uint256"
        }
      ],
      "name": "calculateToken2Deposit",
      "outputs": [
        {
          "internalType": "uint256",
          "name": "token2Amount",
          "type": "uint256"
        }
      ],
      "stateMutability": "view",
      "type": "function"
    },
    {
      "inputs": [
        {
          "internalType": "uint256",
          "name": "_token2Amount",
          "type": "uint256"
        }
      ],
      "name": "calculateToken2Swap",
      "outputs": [
        {
          "internalType": "uint256",
          "name": "token1Amount",
          "type": "uint256"
        }
      ],
      "stateMutability": "view",
      "type": "function"
    },
    {
      "inputs": [
        {
          "internalType": "uint256",
          "name": "_share",
          "type": "uint256"
        }
      ],
      "name": "calculateWithdrawAmount",
      "outputs": [
        {
          "internalType": "uint256",
          "name": "token1Amount",
          "type": "uint256"
        },
        {
          "internalType": "uint256",
          "name": "token2Amount",
          "type": "uint256"
        }
      ],
      "stateMutability": "view",
      "type": "function"
    },
    {
      "inputs": [
        {
          "internalType": "uint256",
          "name": "_share",
          "type": "uint256"
        }
      ],
      "name": "removeLiquidity",
      "outputs": [
        {
          "internalType": "uint256",
          "name": "token1Amount",
          "type": "uint256"
        },
        {
          "internalType": "uint256",
          "name": "token2Amount",
          "type": "uint256"
        }
      ],
      "stateMutability": "nonpayable",
      "type": "function"
    },
    {
      "inputs": [
        {
          "internalType": "address",
          "name": "_operator",
          "type": "address"
        },
        {
          "internalType": "bool",
          "name": "_approved",
          "type": "bool"
        }
      ],
      "name": "setSwapApproval",
      "outputs": [],
      "stateMutability": "nonpayable",
      "type": "function"
    },
    {
      "inputs": [
        {
          "internalType": "address",
          "name": "",
          "type": "address"
        }
      ],
      "name": "shares",
      "outputs": [
        {
          "internalType": "uint256",
          "name": "",
          "type": "uint256"
        }
      ],
      "stateMutability": "view",
      "type": "function"
    },
    {
      "inputs": [
        {
          "internalType": "address",
          "name": "",
          "type": "address"
        },
        {
          "internalType": "address",
          "name": "",
          "type": "address"
        }
      ],
      "name": "swapApprovals",
      "outputs": [
        {
          "internalType": "bool",
          "name": "",
          "type": "bool"
        }
      ],
      "stateMutability": "view",
      "type": "function"
    },
    {
      "inputs": [
        {
          "internalType": "uint256",
          "name": "_token1Amount",
          "type": "uint256"
        },
        {
          "internalType": "address",
          "name": "_owner",
          "type": "address"
        }
      ],
      "name": "swapToken1",
      "outputs": [
        {
          "internalType": "uint256",
          "name": "token2Amount",
          "type": "uint256"
        }
      ],
      "stateMutability": "nonpayable",
      "type": "function"
    },
    {
      "inputs": [
        {
          "internalType": "uint256",
          "name": "_token2Amount",
          "type": "uint256"
        },
        {
          "internalType": "address",
          "name": "_owner",
          "type": "address"
        }
      ],
      "name": "swapToken2",
      "outputs": [
        {
          "internalType": "uint256",
          "name": "token1Amount",
          "type": "uint256"
        }
      ],
      "stateMutability": "nonpayable",
      "type": "function"
    },
    {
      "inputs": [],
      "name": "token1",
      "outputs": [
        {
          "internalType": "contract Token",
          "name": "",
          "type": "address"
        }
      ],
      "stateMutability": "view",
      "type": "function"
    },
    {
      "inputs": [],
      "name": "token1Balance",
      "outputs": [
        {
          "internalType": "uint256",
          "name": "",
          "type": "uint256"
        }
      ],
      "stateMutability": "view",
      "type": "function"
    },
    {
      "inputs": [],
      "name": "token2",
      "outputs": [
        {
          "internalType": "contract Token",
          "name": "",
          "type": "address"
        }
      ],
      "stateMutability": "view",
      "type": "function"
    },
    {
      "inputs": [],
      "name": "token2Balance",
      "outputs": [
        {
          "internalType": "uint256",
          "name": "",
          "type": "uint256"
        }
      ],
      "stateMutability": "view",
      "type": "function"
    },
    {
      "inputs": [],
      "name": "totalShares",
      "outputs": [
        {
          "internalType": "uint256",
          "name": "",
          "type": "uint256"
        }
      ],
      "stateMutability": "view",
      "type": "function"
    }
  ],
  "bytecode": "0x60806040523480156200001157600080fd5b5060405162001dfd38038062001dfd83398181016040528101906200003791906200013e565b816000806101000a81548173ffffffffffffffffffffffffffffffffffffffff021916908373ffffffffffffffffffffffffffffffffffffffff16021790555080600160006101000a81548173ffffffffffffffffffffffffffffffffffffffff021916908373ffffffffffffffffffffffffffffffffffffffff160217905550505062000185565b600080fd5b600073ffffffffffffffffffffffffffffffffffffffff82169050919050565b6000620000f282620000c5565b9050919050565b60006200010682620000e5565b9050919050565b6200011881620000f9565b81146200012457600080fd5b50565b60008151905062000138816200010d565b92915050565b60008060408385031215620001585762000157620000c0565b5b6000620001688582860162000127565b92505060206200017b8582860162000127565b9150509250929050565b611c6880620001956000396000f3fe608060405234801561001057600080fd5b50600436106101165760003560e01c8063a932492f116100a2578063d21220a711610071578063d21220a71461030a578063de1b6d2a14610328578063e02d928214610358578063e682ca6914610388578063fde6c9fb146103b857610116565b8063a932492f1461026e578063b9ffa6a81461028c578063c5b38c05146102aa578063ce7c2ac2146102da57610116565b80637c5d9be2116100e95780637c5d9be2146101915780639a5c77a8146101c15780639c8f9f23146101f15780639cd441da14610222578063a91484af1461023e57610116565b806324cf75991461011b57806325be124e146101375780633a98ef391461015557806368a455f114610173575b600080fd5b610135600480360381019061013091906113c9565b6103e9565b005b61013f610481565b60405161014c9190611468565b60405180910390f35b61015d6104a7565b60405161016a919061149c565b60405180910390f35b61017b6104ad565b604051610188919061149c565b60405180910390f35b6101ab60048036038101906101a691906114e3565b6104b3565b6040516101b8919061149c565b60405180910390f35b6101db60048036038101906101d69190611523565b6107cb565b6040516101e8919061149c565b60405180910390f35b61020b60048036038101906102069190611523565b6107ef565b604051610219929190611550565b60405180910390f35b61023c60048036038101906102379190611579565b610a81565b005b610258600480360381019061025391906115b9565b610dc4565b6040516102659190611608565b60405180910390f35b610276610df3565b604051610283919061149c565b60405180910390f35b610294610df9565b6040516102a1919061149c565b60405180910390f35b6102c460048036038101906102bf9190611523565b610dff565b6040516102d1919061149c565b60405180910390f35b6102f460048036038101906102ef9190611623565b610e97565b604051610301919061149c565b60405180910390f35b610312610eaf565b60405161031f9190611468565b60405180910390f35b610342600480360381019061033d9190611523565b610ed3565b60405161034f919061149c565b60405180910390f35b610372600480360381019061036d91906114e3565b610ef7565b60405161037f919061149c565b60405180910390f35b6103a2600480360381019061039d9190611523565b61120f565b6040516103af919061149c565b60405180910390f35b6103d260048036038101906103cd9190611523565b6112a7565b6040516103e0929190611550565b60405180910390f35b80600760003373ffffffffffffffffffffffffffffffffffffffff1673ffffffffffffffffffffffffffffffffffffffff16815260200190815260200160002060008473ffffffffffffffffffffffffffffffffffffffff1673ffffffffffffffffffffffffffffffffffffffff16815260200190815260200160002060006101000a81548160ff0219169083151502179055505050565b600160009054906101000a900473ffffffffffffffffffffffffffffffffffffffff1681565b60055481565b60035481565b600080339050600073ffffffffffffffffffffffffffffffffffffffff168373ffffffffffffffffffffffffffffffffffffffff16146105ba57600760008473ffffffffffffffffffffffffffffffffffffffff1673ffffffffffffffffffffffffffffffffffffffff16815260200190815260200160002060003373ffffffffffffffffffffffffffffffffffffffff1673ffffffffffffffffffffffffffffffffffffffff16815260200190815260200160002060009054906101000a900460ff166105b6576040517f08c379a00000000000000000000000000000000000000000000000000000000081526004016105ad906116d3565b60405180910390fd5b8290505b6105c384610dff565b9150600160009054906101000a900473ffffffffffffffffffffffffffffffffffffffff1673ffffffffffffffffffffffffffffffffffffffff166323b872dd8230876040518463ffffffff1660e01b815260040161062493929190611702565b6020604051808303816000875af1158015610643573d6000803e3d6000fd5b505050506040513d601f19601f82011682018060405250810190610667919061174e565b50836003600082825461067a91906117aa565b92505081905550816002600082825461069391906117de565b9250508190555060008054906101000a900473ffffffffffffffffffffffffffffffffffffffff1673ffffffffffffffffffffffffffffffffffffffff1663a9059cbb82846040518363ffffffff1660e01b81526004016106f5929190611812565b6020604051808303816000875af1158015610714573d6000803e3d6000fd5b505050506040513d601f19601f82011682018060405250810190610738919061174e565b507f31c309ecd457dce7604a286d63a4b470e321337fb9877ce63c1109e1003c89f681600160009054906101000a900473ffffffffffffffffffffffffffffffffffffffff168660008054906101000a900473ffffffffffffffffffffffffffffffffffffffff1686600254600354426040516107bc98979695949392919061183b565b60405180910390a15092915050565b6000600254826003546107de91906118b9565b6107e8919061192a565b9050919050565b600080600660003373ffffffffffffffffffffffffffffffffffffffff1673ffffffffffffffffffffffffffffffffffffffff16815260200190815260200160002054831115610874576040517f08c379a000000000000000000000000000000000000000000000000000000000815260040161086b906119cd565b60405180910390fd5b61087d836112a7565b809250819350505082600660003373ffffffffffffffffffffffffffffffffffffffff1673ffffffffffffffffffffffffffffffffffffffff16815260200190815260200160002060008282546108d491906117de565b9250508190555082600560008282546108ed91906117de565b92505081905550816002600082825461090691906117de565b92505081905550806003600082825461091f91906117de565b9250508190555060035460025461093691906118b9565b60048190555060008054906101000a900473ffffffffffffffffffffffffffffffffffffffff1673ffffffffffffffffffffffffffffffffffffffff1663a9059cbb33846040518363ffffffff1660e01b8152600401610997929190611812565b6020604051808303816000875af11580156109b6573d6000803e3d6000fd5b505050506040513d601f19601f820116820180604052508101906109da919061174e565b50600160009054906101000a900473ffffffffffffffffffffffffffffffffffffffff1673ffffffffffffffffffffffffffffffffffffffff1663a9059cbb33836040518363ffffffff1660e01b8152600401610a38929190611812565b6020604051808303816000875af1158015610a57573d6000803e3d6000fd5b505050506040513d601f19601f82011682018060405250810190610a7b919061174e565b50915091565b60008054906101000a900473ffffffffffffffffffffffffffffffffffffffff1673ffffffffffffffffffffffffffffffffffffffff166323b872dd3330856040518463ffffffff1660e01b8152600401610ade93929190611702565b6020604051808303816000875af1158015610afd573d6000803e3d6000fd5b505050506040513d601f19601f82011682018060405250810190610b21919061174e565b610b60576040517f08c379a0000000000000000000000000000000000000000000000000000000008152600401610b5790611a39565b60405180910390fd5b600160009054906101000a900473ffffffffffffffffffffffffffffffffffffffff1673ffffffffffffffffffffffffffffffffffffffff166323b872dd3330846040518463ffffffff1660e01b8152600401610bbf93929190611702565b6020604051808303816000875af1158015610bde573d6000803e3d6000fd5b505050506040513d601f19601f82011682018060405250810190610c02919061174e565b610c41576040517f08c379a0000000000000000000000000000000000000000000000000000000008152600401610c3890611aa5565b60405180910390fd5b60008060055403610c6857670de0b6b3a76400006064610c6191906118b9565b9050610d08565b600060025484600554610c7b91906118b9565b610c85919061192a565b9050600060035484600554610c9a91906118b9565b610ca4919061192a565b90506103e881610cb4919061192a565b6103e883610cc2919061192a565b14610d02576040517f08c379a0000000000000000000000000000000000000000000000000000000008152600401610cf990611b11565b60405180910390fd5b81925050505b8260026000828254610d1a91906117aa565b925050819055508160036000828254610d3391906117aa565b92505081905550600354600254610d4a91906118b9565b6004819055508060056000828254610d6291906117aa565b9250508190555080600660003373ffffffffffffffffffffffffffffffffffffffff1673ffffffffffffffffffffffffffffffffffffffff1681526020019081526020016000206000828254610db891906117aa565b92505081905550505050565b60076020528160005260406000206020528060005260406000206000915091509054906101000a900460ff1681565b60045481565b60025481565b60008082600354610e1091906117aa565b9050600081600454610e22919061192a565b905080600254610e3291906117de565b92506002548303610e4c578280610e4890611b31565b9350505b6002548310610e90576040517f08c379a0000000000000000000000000000000000000000000000000000000008152600401610e8790611ba6565b60405180910390fd5b5050919050565b60066020528060005260406000206000915090505481565b60008054906101000a900473ffffffffffffffffffffffffffffffffffffffff1681565b600060035482600254610ee691906118b9565b610ef0919061192a565b9050919050565b600080339050600073ffffffffffffffffffffffffffffffffffffffff168373ffffffffffffffffffffffffffffffffffffffff1614610ffe57600760008473ffffffffffffffffffffffffffffffffffffffff1673ffffffffffffffffffffffffffffffffffffffff16815260200190815260200160002060003373ffffffffffffffffffffffffffffffffffffffff1673ffffffffffffffffffffffffffffffffffffffff16815260200190815260200160002060009054906101000a900460ff16610ffa576040517f08c379a0000000000000000000000000000000000000000000000000000000008152600401610ff1906116d3565b60405180910390fd5b8290505b6110078461120f565b915060008054906101000a900473ffffffffffffffffffffffffffffffffffffffff1673ffffffffffffffffffffffffffffffffffffffff166323b872dd8230876040518463ffffffff1660e01b815260040161106693929190611702565b6020604051808303816000875af1158015611085573d6000803e3d6000fd5b505050506040513d601f19601f820116820180604052508101906110a9919061174e565b5083600260008282546110bc91906117aa565b9250508190555081600360008282546110d591906117de565b92505081905550600160009054906101000a900473ffffffffffffffffffffffffffffffffffffffff1673ffffffffffffffffffffffffffffffffffffffff1663a9059cbb82846040518363ffffffff1660e01b8152600401611139929190611812565b6020604051808303816000875af1158015611158573d6000803e3d6000fd5b505050506040513d601f19601f8201168201806040525081019061117c919061174e565b507f31c309ecd457dce7604a286d63a4b470e321337fb9877ce63c1109e1003c89f68160008054906101000a900473ffffffffffffffffffffffffffffffffffffffff1686600160009054906101000a900473ffffffffffffffffffffffffffffffffffffffff16866002546003544260405161120098979695949392919061183b565b60405180910390a15092915050565b6000808260025461122091906117aa565b9050600081600454611232919061192a565b90508060035461124291906117de565b9250600354830361125c57828061125890611b31565b9350505b60035483106112a0576040517f08c379a000000000000000000000000000000000000000000000000000000000815260040161129790611ba6565b60405180910390fd5b5050919050565b6000806005548311156112ef576040517f08c379a00000000000000000000000000000000000000000000000000000000081526004016112e690611c12565b60405180910390fd5b6005546002548461130091906118b9565b61130a919061192a565b91506005546003548461131d91906118b9565b611327919061192a565b9050915091565b600080fd5b600073ffffffffffffffffffffffffffffffffffffffff82169050919050565b600061135e82611333565b9050919050565b61136e81611353565b811461137957600080fd5b50565b60008135905061138b81611365565b92915050565b60008115159050919050565b6113a681611391565b81146113b157600080fd5b50565b6000813590506113c38161139d565b92915050565b600080604083850312156113e0576113df61132e565b5b60006113ee8582860161137c565b92505060206113ff858286016113b4565b9150509250929050565b6000819050919050565b600061142e61142961142484611333565b611409565b611333565b9050919050565b600061144082611413565b9050919050565b600061145282611435565b9050919050565b61146281611447565b82525050565b600060208201905061147d6000830184611459565b92915050565b6000819050919050565b61149681611483565b82525050565b60006020820190506114b1600083018461148d565b92915050565b6114c081611483565b81146114cb57600080fd5b50565b6000813590506114dd816114b7565b92915050565b600080604083850312156114fa576114f961132e565b5b6000611508858286016114ce565b92505060206115198582860161137c565b9150509250929050565b6000602082840312156115395761153861132e565b5b6000611547848285016114ce565b91505092915050565b6000604082019050611565600083018561148d565b611572602083018461148d565b9392505050565b600080604083850312156115905761158f61132e565b5b600061159e858286016114ce565b92505060206115af858286016114ce565b9150509250929050565b600080604083850312156115d0576115cf61132e565b5b60006115de8582860161137c565b92505060206115ef8582860161137c565b9150509250929050565b61160281611391565b82525050565b600060208201905061161d60008301846115f9565b92915050565b6000602082840312156116395761163861132e565b5b60006116478482850161137c565b91505092915050565b600082825260208201905092915050565b7f4e6f7420617070726f76656420746f2073776170206f6e20626568616c66206f60008201527f66206f776e657200000000000000000000000000000000000000000000000000602082015250565b60006116bd602783611650565b91506116c882611661565b604082019050919050565b600060208201905081810360008301526116ec816116b0565b9050919050565b6116fc81611353565b82525050565b600060608201905061171760008301866116f3565b61172460208301856116f3565b611731604083018461148d565b949350505050565b6000815190506117488161139d565b92915050565b6000602082840312156117645761176361132e565b5b600061177284828501611739565b91505092915050565b7f4e487b7100000000000000000000000000000000000000000000000000000000600052601160045260246000fd5b60006117b582611483565b91506117c083611483565b92508282019050808211156117d8576117d761177b565b5b92915050565b60006117e982611483565b91506117f483611483565b925082820390508181111561180c5761180b61177b565b5b92915050565b600060408201905061182760008301856116f3565b611834602083018461148d565b9392505050565b600061010082019050611851600083018b6116f3565b61185e602083018a6116f3565b61186b604083018961148d565b61187860608301886116f3565b611885608083018761148d565b61189260a083018661148d565b61189f60c083018561148d565b6118ac60e083018461148d565b9998505050505050505050565b60006118c482611483565b91506118cf83611483565b92508282026118dd81611483565b915082820484148315176118f4576118f361177b565b5b5092915050565b7f4e487b7100000000000000000000000000000000000000000000000000000000600052601260045260246000fd5b600061193582611483565b915061194083611483565b9250826119505761194f6118fb565b5b828204905092915050565b7f63616e6e6f74207769746864726177206d6f726520736861726573207468616e60008201527f20796f7520686176650000000000000000000000000000000000000000000000602082015250565b60006119b7602983611650565b91506119c28261195b565b604082019050919050565b600060208201905081810360008301526119e6816119aa565b9050919050565b7f6661696c656420746f207472616e7366657220746f6b656e2031000000000000600082015250565b6000611a23601a83611650565b9150611a2e826119ed565b602082019050919050565b60006020820190508181036000830152611a5281611a16565b9050919050565b7f6661696c656420746f207472616e7366657220746f6b656e2032000000000000600082015250565b6000611a8f601a83611650565b9150611a9a82611a59565b602082019050919050565b60006020820190508181036000830152611abe81611a82565b9050919050565b7f6d7573742070726f7669646520657175616c20746f6b656e20616d6f756e7473600082015250565b6000611afb602083611650565b9150611b0682611ac5565b602082019050919050565b60006020820190508181036000830152611b2a81611aee565b9050919050565b6000611b3c82611483565b915060008203611b4f57611b4e61177b565b5b600182039050919050565b7f7377617020616d6f756e7420746f206c61726765000000000000000000000000600082015250565b6000611b90601483611650565b9150611b9b82611b5a565b602082019050919050565b60006020820190508181036000830152611bbf81611b83565b9050919050565b7f6d757374206265206c657373207468616e20746f74616c207368617265730000600082015250565b6000611bfc601e83611650565b9150611c0782611bc6565b602082019050919050565b60006020820190508181036000830152611c2b81611bef565b905091905056fea264697066735822122032d3c5bb782934bf4e6c2c2a042af58a6d469076da9609c01d7ba0d50a764ade64736f6c63430008140033",
  "linkReferences": {},
  "deployedLinkReferences": {}
}