{
  "_format": "hh-sol-artifact-1",
  "contractName": "AMM",
  "sourceName": "contracts/AMM.sol",
  "abi": [
    {
      "inputs": [
        {
          "internalType": "contract Token",
          "name": "_token1",
          "type": "address"
        },
        {
          "internalType": "contract Token",
          "name": "_token2",
          "type": "address"
        }
      ],
      "stateMutability": "nonpayable",
      "type": "constructor"
    },
    {
      "anonymous": false,
      "inputs": [
        {
          "indexed": false,
          "internalType": "address",
          "name": "user",
          "type": "address"
        },
        {
          "indexed": false,
          "internalType": "address",
          "name": "tokenGive",
          "type": "address"
        },
        {
          "indexed": false,
          "internalType": "uint256",
          "name": "tokenGiveAmount",
          "type": "uint256"
        },
        {
          "indexed": false,
          "internalType": "address",
          "name": "tokenGet",
          "type": "address"
        },
        {
          "indexed": false,
          "internalType": "uint256",
          "name": "tokenGetAmount",
          "type": "uint256"
        },
        {
          "indexed": false,
          "internalType": "uint256",
          "name": "token1Balance",
          "type": "uint256"
        },
        {
          "indexed": false,
          "internalType": "uint256",
          "name": "token2Balance",
          "type": "uint256"
        },
        {
          "indexed": false,
          "internalType": "uint256",
          "name": "timestamp",
          "type": "uint256"
        }
      ],
      "name": "Swap",
      "type": "event"
    },
    {
      "inputs": [],
      "name": "K",
      "outputs": [
        {
          "internalType": "uint256",
          "name": "",
          "type": "uint256"
        }
      ],
      "stateMutability": "view",
      "type": "function"
    },
    {
      "inputs": [
        {
          "internalType": "uint256",
          "name": "_token1Amount",
          "type": "uint256"
        },
        {
          "internalType": "uint256",
          "name": "_token2Amount",
          "type": "uint256"
        }
      ],
      "name": "addLiquidity",
      "outputs": [],
      "stateMutability": "nonpayable",
      "type": "function"
    },
    {
      "inputs": [
        {
          "internalType": "uint256",
          "name": "_token2Amount",
          "type": "uint256"
        }
      ],
      "name": "calculateToken1Deposit",
      "outputs": [
        {
          "internalType": "uint256",
          "name": "token1Amount",
          "type": "uint256"
        }
      ],
      "stateMutability": "view",
      "type": "function"
    },
    {
      "inputs": [
        {
          "internalType": "uint256",
          "name": "_token1Amount",
          "type": "uint256"
        }
      ],
      "name": "calculateToken1Swap",
      "outputs": [
        {
          "internalType": "uint256",
          "name": "token2Amount",
          "type": "uint256"
        }
      ],
      "stateMutability": "view",
      "type": "function"
    },
    {
      "inputs": [
        {
          "internalType": "uint256",
          "name": "_token1Amount",
          "type": "uint256"
        }
      ],
      "name": "calculateToken2Deposit",
      "outputs": [
        {
          "internalType": "uint256",
          "name": "token2Amount",
          "type": "uint256"
        }
      ],
      "stateMutability": "view",
      "type": "function"
    },
    {
      "inputs": [
        {
          "internalType": "uint256",
          "name": "_token2Amount",
          "type": "uint256"
        }
      ],
      "name": "calculateToken2Swap",
      "outputs": [
        {
          "internalType": "uint256",
          "name": "token1Amount",
          "type": "uint256"
        }
      ],
      "stateMutability": "view",
      "type": "function"
    },
    {
      "inputs": [
        {
          "internalType": "uint256",
          "name": "_share",
          "type": "uint256"
        }
      ],
      "name": "calculateWithdrawAmount",
      "outputs": [
        {
          "internalType": "uint256",
          "name": "token1Amount",
          "type": "uint256"
        },
        {
          "internalType": "uint256",
          "name": "token2Amount",
          "type": "uint256"
        }
      ],
      "stateMutability": "view",
      "type": "function"
    },
    {
      "inputs": [],
      "name": "deployer",
      "outputs": [
        {
          "internalType": "address",
          "name": "",
          "type": "address"
        }
      ],
      "stateMutability": "view",
      "type": "function"
    },
    {
      "inputs": [
        {
          "internalType": "uint256",
          "name": "_share",
          "type": "uint256"
        }
      ],
      "name": "removeLiquidity",
      "outputs": [
        {
          "internalType": "uint256",
          "name": "token1Amount",
          "type": "uint256"
        },
        {
          "internalType": "uint256",
          "name": "token2Amount",
          "type": "uint256"
        }
      ],
      "stateMutability": "nonpayable",
      "type": "function"
    },
    {
      "inputs": [
        {
          "internalType": "address",
          "name": "_operator",
          "type": "address"
        },
        {
          "internalType": "bool",
          "name": "_approved",
          "type": "bool"
        }
      ],
      "name": "setSwapApproval",
      "outputs": [],
      "stateMutability": "nonpayable",
      "type": "function"
    },
    {
      "inputs": [
        {
          "internalType": "address",
          "name": "",
          "type": "address"
        }
      ],
      "name": "shares",
      "outputs": [
        {
          "internalType": "uint256",
          "name": "",
          "type": "uint256"
        }
      ],
      "stateMutability": "view",
      "type": "function"
    },
    {
      "inputs": [
        {
          "internalType": "address",
          "name": "",
          "type": "address"
        },
        {
          "internalType": "address",
          "name": "",
          "type": "address"
        }
      ],
      "name": "swapApprovals",
      "outputs": [
        {
          "internalType": "bool",
          "name": "",
          "type": "bool"
        }
      ],
      "stateMutability": "view",
      "type": "function"
    },
    {
      "inputs": [
        {
          "internalType": "uint256",
          "name": "_token1Amount",
          "type": "uint256"
        },
        {
          "internalType": "address",
          "name": "_owner",
          "type": "address"
        }
      ],
      "name": "swapToken1",
      "outputs": [
        {
          "internalType": "uint256",
          "name": "token2Amount",
          "type": "uint256"
        }
      ],
      "stateMutability": "nonpayable",
      "type": "function"
    },
    {
      "inputs": [
        {
          "internalType": "uint256",
          "name": "_token2Amount",
          "type": "uint256"
        },
        {
          "internalType": "address",
          "name": "_owner",
          "type": "address"
        }
      ],
      "name": "swapToken2",
      "outputs": [
        {
          "internalType": "uint256",
          "name": "token1Amount",
          "type": "uint256"
        }
      ],
      "stateMutability": "nonpayable",
      "type": "function"
    },
    {
      "inputs": [],
      "name": "token1",
      "outputs": [
        {
          "internalType": "contract Token",
          "name": "",
          "type": "address"
        }
      ],
      "stateMutability": "view",
      "type": "function"
    },
    {
      "inputs": [],
      "name": "token1Balance",
      "outputs": [
        {
          "internalType": "uint256",
          "name": "",
          "type": "uint256"
        }
      ],
      "stateMutability": "view",
      "type": "function"
    },
    {
      "inputs": [],
      "name": "token2",
      "outputs": [
        {
          "internalType": "contract Token",
          "name": "",
          "type": "address"
        }
      ],
      "stateMutability": "view",
      "type": "function"
    },
    {
      "inputs": [],
      "name": "token2Balance",
      "outputs": [
        {
          "internalType": "uint256",
          "name": "",
          "type": "uint256"
        }
      ],
      "stateMutability": "view",
      "type": "function"
    },
    {
      "inputs": [],
      "name": "totalShares",
      "outputs": [
        {
          "internalType": "uint256",
          "name": "",
          "type": "uint256"
        }
      ],
      "stateMutability": "view",
      "type": "function"
    }
  ],
  "bytecode": "0x60806040523480156200001157600080fd5b5060405162001f6438038062001f6483398181016040528101906200003791906200017f565b816000806101000a81548173ffffffffffffffffffffffffffffffffffffffff021916908373ffffffffffffffffffffffffffffffffffffffff16021790555080600160006101000a81548173ffffffffffffffffffffffffffffffffffffffff021916908373ffffffffffffffffffffffffffffffffffffffff16021790555033600760006101000a81548173ffffffffffffffffffffffffffffffffffffffff021916908373ffffffffffffffffffffffffffffffffffffffff1602179055505050620001c6565b600080fd5b600073ffffffffffffffffffffffffffffffffffffffff82169050919050565b6000620001338262000106565b9050919050565b6000620001478262000126565b9050919050565b62000159816200013a565b81146200016557600080fd5b50565b60008151905062000179816200014e565b92915050565b6000806040838503121562000199576200019862000101565b5b6000620001a98582860162000168565b9250506020620001bc8582860162000168565b9150509250929050565b611d8e80620001d66000396000f3fe608060405234801561001057600080fd5b50600436106101215760003560e01c8063a932492f116100ad578063d5f3948811610071578063d5f3948814610333578063de1b6d2a14610351578063e02d928214610381578063e682ca69146103b1578063fde6c9fb146103e157610121565b8063a932492f14610279578063b9ffa6a814610297578063c5b38c05146102b5578063ce7c2ac2146102e5578063d21220a71461031557610121565b80637c5d9be2116100f45780637c5d9be21461019c5780639a5c77a8146101cc5780639c8f9f23146101fc5780639cd441da1461022d578063a91484af1461024957610121565b806324cf75991461012657806325be124e146101425780633a98ef391461016057806368a455f11461017e575b600080fd5b610140600480360381019061013b91906114d4565b610412565b005b61014a6104aa565b6040516101579190611573565b60405180910390f35b6101686104d0565b60405161017591906115a7565b60405180910390f35b6101866104d6565b60405161019391906115a7565b60405180910390f35b6101b660048036038101906101b191906115ee565b6104dc565b6040516101c391906115a7565b60405180910390f35b6101e660048036038101906101e1919061162e565b610852565b6040516101f391906115a7565b60405180910390f35b6102166004803603810190610211919061162e565b610876565b60405161022492919061165b565b60405180910390f35b61024760048036038101906102429190611684565b610b08565b005b610263600480360381019061025e91906116c4565b610e4b565b6040516102709190611713565b60405180910390f35b610281610e7a565b60405161028e91906115a7565b60405180910390f35b61029f610e80565b6040516102ac91906115a7565b60405180910390f35b6102cf60048036038101906102ca919061162e565b610e86565b6040516102dc91906115a7565b60405180910390f35b6102ff60048036038101906102fa919061172e565b610f1e565b60405161030c91906115a7565b60405180910390f35b61031d610f36565b60405161032a9190611573565b60405180910390f35b61033b610f5a565b604051610348919061176a565b60405180910390f35b61036b6004803603810190610366919061162e565b610f80565b60405161037891906115a7565b60405180910390f35b61039b600480360381019061039691906115ee565b610fa4565b6040516103a891906115a7565b60405180910390f35b6103cb60048036038101906103c6919061162e565b61131a565b6040516103d891906115a7565b60405180910390f35b6103fb60048036038101906103f6919061162e565b6113b2565b60405161040992919061165b565b60405180910390f35b80600860003373ffffffffffffffffffffffffffffffffffffffff1673ffffffffffffffffffffffffffffffffffffffff16815260200190815260200160002060008473ffffffffffffffffffffffffffffffffffffffff1673ffffffffffffffffffffffffffffffffffffffff16815260200190815260200160002060006101000a81548160ff0219169083151502179055505050565b600160009054906101000a900473ffffffffffffffffffffffffffffffffffffffff1681565b60055481565b60035481565b600080600073ffffffffffffffffffffffffffffffffffffffff168373ffffffffffffffffffffffffffffffffffffffff161461063d57600760009054906101000a900473ffffffffffffffffffffffffffffffffffffffff1673ffffffffffffffffffffffffffffffffffffffff163373ffffffffffffffffffffffffffffffffffffffff161480156105f65750600860008473ffffffffffffffffffffffffffffffffffffffff1673ffffffffffffffffffffffffffffffffffffffff16815260200190815260200160002060003373ffffffffffffffffffffffffffffffffffffffff1673ffffffffffffffffffffffffffffffffffffffff16815260200190815260200160002060009054906101000a900460ff165b610635576040517f08c379a000000000000000000000000000000000000000000000000000000000815260040161062c90611808565b60405180910390fd5b829050610641565b3390505b61064a84610e86565b9150600160009054906101000a900473ffffffffffffffffffffffffffffffffffffffff1673ffffffffffffffffffffffffffffffffffffffff166323b872dd8230876040518463ffffffff1660e01b81526004016106ab93929190611828565b6020604051808303816000875af11580156106ca573d6000803e3d6000fd5b505050506040513d601f19601f820116820180604052508101906106ee9190611874565b50836003600082825461070191906118d0565b92505081905550816002600082825461071a9190611904565b9250508190555060008054906101000a900473ffffffffffffffffffffffffffffffffffffffff1673ffffffffffffffffffffffffffffffffffffffff1663a9059cbb82846040518363ffffffff1660e01b815260040161077c929190611938565b6020604051808303816000875af115801561079b573d6000803e3d6000fd5b505050506040513d601f19601f820116820180604052508101906107bf9190611874565b507f31c309ecd457dce7604a286d63a4b470e321337fb9877ce63c1109e1003c89f681600160009054906101000a900473ffffffffffffffffffffffffffffffffffffffff168660008054906101000a900473ffffffffffffffffffffffffffffffffffffffff168660025460035442604051610843989796959493929190611961565b60405180910390a15092915050565b60006002548260035461086591906119df565b61086f9190611a50565b9050919050565b600080600660003373ffffffffffffffffffffffffffffffffffffffff1673ffffffffffffffffffffffffffffffffffffffff168152602001908152602001600020548311156108fb576040517f08c379a00000000000000000000000000000000000000000000000000000000081526004016108f290611af3565b60405180910390fd5b610904836113b2565b809250819350505082600660003373ffffffffffffffffffffffffffffffffffffffff1673ffffffffffffffffffffffffffffffffffffffff168152602001908152602001600020600082825461095b9190611904565b9250508190555082600560008282546109749190611904565b92505081905550816002600082825461098d9190611904565b9250508190555080600360008282546109a69190611904565b925050819055506003546002546109bd91906119df565b60048190555060008054906101000a900473ffffffffffffffffffffffffffffffffffffffff1673ffffffffffffffffffffffffffffffffffffffff1663a9059cbb33846040518363ffffffff1660e01b8152600401610a1e929190611938565b6020604051808303816000875af1158015610a3d573d6000803e3d6000fd5b505050506040513d601f19601f82011682018060405250810190610a619190611874565b50600160009054906101000a900473ffffffffffffffffffffffffffffffffffffffff1673ffffffffffffffffffffffffffffffffffffffff1663a9059cbb33836040518363ffffffff1660e01b8152600401610abf929190611938565b6020604051808303816000875af1158015610ade573d6000803e3d6000fd5b505050506040513d601f19601f82011682018060405250810190610b029190611874565b50915091565b60008054906101000a900473ffffffffffffffffffffffffffffffffffffffff1673ffffffffffffffffffffffffffffffffffffffff166323b872dd3330856040518463ffffffff1660e01b8152600401610b6593929190611828565b6020604051808303816000875af1158015610b84573d6000803e3d6000fd5b505050506040513d601f19601f82011682018060405250810190610ba89190611874565b610be7576040517f08c379a0000000000000000000000000000000000000000000000000000000008152600401610bde90611b5f565b60405180910390fd5b600160009054906101000a900473ffffffffffffffffffffffffffffffffffffffff1673ffffffffffffffffffffffffffffffffffffffff166323b872dd3330846040518463ffffffff1660e01b8152600401610c4693929190611828565b6020604051808303816000875af1158015610c65573d6000803e3d6000fd5b505050506040513d601f19601f82011682018060405250810190610c899190611874565b610cc8576040517f08c379a0000000000000000000000000000000000000000000000000000000008152600401610cbf90611bcb565b60405180910390fd5b60008060055403610cef57670de0b6b3a76400006064610ce891906119df565b9050610d8f565b600060025484600554610d0291906119df565b610d0c9190611a50565b9050600060035484600554610d2191906119df565b610d2b9190611a50565b90506103e881610d3b9190611a50565b6103e883610d499190611a50565b14610d89576040517f08c379a0000000000000000000000000000000000000000000000000000000008152600401610d8090611c37565b60405180910390fd5b81925050505b8260026000828254610da191906118d0565b925050819055508160036000828254610dba91906118d0565b92505081905550600354600254610dd191906119df565b6004819055508060056000828254610de991906118d0565b9250508190555080600660003373ffffffffffffffffffffffffffffffffffffffff1673ffffffffffffffffffffffffffffffffffffffff1681526020019081526020016000206000828254610e3f91906118d0565b92505081905550505050565b60086020528160005260406000206020528060005260406000206000915091509054906101000a900460ff1681565b60045481565b60025481565b60008082600354610e9791906118d0565b9050600081600454610ea99190611a50565b905080600254610eb99190611904565b92506002548303610ed3578280610ecf90611c57565b9350505b6002548310610f17576040517f08c379a0000000000000000000000000000000000000000000000000000000008152600401610f0e90611ccc565b60405180910390fd5b5050919050565b60066020528060005260406000206000915090505481565b60008054906101000a900473ffffffffffffffffffffffffffffffffffffffff1681565b600760009054906101000a900473ffffffffffffffffffffffffffffffffffffffff1681565b600060035482600254610f9391906119df565b610f9d9190611a50565b9050919050565b600080600073ffffffffffffffffffffffffffffffffffffffff168373ffffffffffffffffffffffffffffffffffffffff161461110557600760009054906101000a900473ffffffffffffffffffffffffffffffffffffffff1673ffffffffffffffffffffffffffffffffffffffff163373ffffffffffffffffffffffffffffffffffffffff161480156110be5750600860008473ffffffffffffffffffffffffffffffffffffffff1673ffffffffffffffffffffffffffffffffffffffff16815260200190815260200160002060003373ffffffffffffffffffffffffffffffffffffffff1673ffffffffffffffffffffffffffffffffffffffff16815260200190815260200160002060009054906101000a900460ff165b6110fd576040517f08c379a00000000000000000000000000000000000000000000000000000000081526004016110f490611808565b60405180910390fd5b829050611109565b3390505b6111128461131a565b915060008054906101000a900473ffffffffffffffffffffffffffffffffffffffff1673ffffffffffffffffffffffffffffffffffffffff166323b872dd8230876040518463ffffffff1660e01b815260040161117193929190611828565b6020604051808303816000875af1158015611190573d6000803e3d6000fd5b505050506040513d601f19601f820116820180604052508101906111b49190611874565b5083600260008282546111c791906118d0565b9250508190555081600360008282546111e09190611904565b92505081905550600160009054906101000a900473ffffffffffffffffffffffffffffffffffffffff1673ffffffffffffffffffffffffffffffffffffffff1663a9059cbb82846040518363ffffffff1660e01b8152600401611244929190611938565b6020604051808303816000875af1158015611263573d6000803e3d6000fd5b505050506040513d601f19601f820116820180604052508101906112879190611874565b507f31c309ecd457dce7604a286d63a4b470e321337fb9877ce63c1109e1003c89f68160008054906101000a900473ffffffffffffffffffffffffffffffffffffffff1686600160009054906101000a900473ffffffffffffffffffffffffffffffffffffffff16866002546003544260405161130b989796959493929190611961565b60405180910390a15092915050565b6000808260025461132b91906118d0565b905060008160045461133d9190611a50565b90508060035461134d9190611904565b9250600354830361136757828061136390611c57565b9350505b60035483106113ab576040517f08c379a00000000000000000000000000000000000000000000000000000000081526004016113a290611ccc565b60405180910390fd5b5050919050565b6000806005548311156113fa576040517f08c379a00000000000000000000000000000000000000000000000000000000081526004016113f190611d38565b60405180910390fd5b6005546002548461140b91906119df565b6114159190611a50565b91506005546003548461142891906119df565b6114329190611a50565b9050915091565b600080fd5b600073ffffffffffffffffffffffffffffffffffffffff82169050919050565b60006114698261143e565b9050919050565b6114798161145e565b811461148457600080fd5b50565b60008135905061149681611470565b92915050565b60008115159050919050565b6114b18161149c565b81146114bc57600080fd5b50565b6000813590506114ce816114a8565b92915050565b600080604083850312156114eb576114ea611439565b5b60006114f985828601611487565b925050602061150a858286016114bf565b9150509250929050565b6000819050919050565b600061153961153461152f8461143e565b611514565b61143e565b9050919050565b600061154b8261151e565b9050919050565b600061155d82611540565b9050919050565b61156d81611552565b82525050565b60006020820190506115886000830184611564565b92915050565b6000819050919050565b6115a18161158e565b82525050565b60006020820190506115bc6000830184611598565b92915050565b6115cb8161158e565b81146115d657600080fd5b50565b6000813590506115e8816115c2565b92915050565b6000806040838503121561160557611604611439565b5b6000611613858286016115d9565b925050602061162485828601611487565b9150509250929050565b60006020828403121561164457611643611439565b5b6000611652848285016115d9565b91505092915050565b60006040820190506116706000830185611598565b61167d6020830184611598565b9392505050565b6000806040838503121561169b5761169a611439565b5b60006116a9858286016115d9565b92505060206116ba858286016115d9565b9150509250929050565b600080604083850312156116db576116da611439565b5b60006116e985828601611487565b92505060206116fa85828601611487565b9150509250929050565b61170d8161149c565b82525050565b60006020820190506117286000830184611704565b92915050565b60006020828403121561174457611743611439565b5b600061175284828501611487565b91505092915050565b6117648161145e565b82525050565b600060208201905061177f600083018461175b565b92915050565b600082825260208201905092915050565b7f4e6f7420617574686f72697a656420746f2073776170206f6e20626568616c6660008201527f206f66206f776e65720000000000000000000000000000000000000000000000602082015250565b60006117f2602983611785565b91506117fd82611796565b604082019050919050565b60006020820190508181036000830152611821816117e5565b9050919050565b600060608201905061183d600083018661175b565b61184a602083018561175b565b6118576040830184611598565b949350505050565b60008151905061186e816114a8565b92915050565b60006020828403121561188a57611889611439565b5b60006118988482850161185f565b91505092915050565b7f4e487b7100000000000000000000000000000000000000000000000000000000600052601160045260246000fd5b60006118db8261158e565b91506118e68361158e565b92508282019050808211156118fe576118fd6118a1565b5b92915050565b600061190f8261158e565b915061191a8361158e565b9250828203905081811115611932576119316118a1565b5b92915050565b600060408201905061194d600083018561175b565b61195a6020830184611598565b9392505050565b600061010082019050611977600083018b61175b565b611984602083018a61175b565b6119916040830189611598565b61199e606083018861175b565b6119ab6080830187611598565b6119b860a0830186611598565b6119c560c0830185611598565b6119d260e0830184611598565b9998505050505050505050565b60006119ea8261158e565b91506119f58361158e565b9250828202611a038161158e565b91508282048414831517611a1a57611a196118a1565b5b5092915050565b7f4e487b7100000000000000000000000000000000000000000000000000000000600052601260045260246000fd5b6000611a5b8261158e565b9150611a668361158e565b925082611a7657611a75611a21565b5b828204905092915050565b7f63616e6e6f74207769746864726177206d6f726520736861726573207468616e60008201527f20796f7520686176650000000000000000000000000000000000000000000000602082015250565b6000611add602983611785565b9150611ae882611a81565b604082019050919050565b60006020820190508181036000830152611b0c81611ad0565b9050919050565b7f6661696c656420746f207472616e7366657220746f6b656e2031000000000000600082015250565b6000611b49601a83611785565b9150611b5482611b13565b602082019050919050565b60006020820190508181036000830152611b7881611b3c565b9050919050565b7f6661696c656420746f207472616e7366657220746f6b656e2032000000000000600082015250565b6000611bb5601a83611785565b9150611bc082611b7f565b602082019050919050565b60006020820190508181036000830152611be481611ba8565b9050919050565b7f6d7573742070726f7669646520657175616c20746f6b656e20616d6f756e7473600082015250565b6000611c21602083611785565b9150611c2c82611beb565b602082019050919050565b60006020820190508181036000830152611c5081611c14565b9050919050565b6000611c628261158e565b915060008203611c7557611c746118a1565b5b600182039050919050565b7f7377617020616d6f756e7420746f206c61726765000000000000000000000000600082015250565b6000611cb6601483611785565b9150611cc182611c80565b602082019050919050565b60006020820190508181036000830152611ce581611ca9565b9050919050565b7f6d757374206265206c657373207468616e20746f74616c207368617265730000600082015250565b6000611d22601e83611785565b9150611d2d82611cec565b602082019050919050565b60006020820190508181036000830152611d5181611d15565b905091905056fea264697066735822122079f085b64dc7106f601215527c9daa877d6890edf3ed5a4ff8837f69a846d8ed64736f6c63430008140033",
  "linkReferences": {},
  "deployedLinkReferences": {}
}